:020000020000FC
:040000000C942A0032
:100044000C9465000C948E00000000000C94790060
:1000540000E810E0009361001093610000E40AB925
:1000640000E600937C0003E800937A0000E0C02ED1
:1000740001E0D02E02E0E02E03E0F02EF4B812E00E
:10008400DAD00DEF11E0109387000093860000276B
:1000940000938000502F01E100938100602F01E064
:1000A40000936F0000E311271093890000938800E8
:1000B40000E8112710938B0000938A00F2E0E0E639
:1000C40041E07894FFCFC5B805E000936F004A95EE
:1000D40069F44591959091FE03C00591059102C084
:1000E4007591859190FE02C0F2E0E0E61895D5B8CE
:1000F40006E006BB07E000936F0050938000609316
:1001040081000F911F9191FE02C0712F802F04E690
:100114000F9300E00F931895D5B801E000936F009A
:1001240092FC0BC091FE04C00027502F01E1602F08
:100134000F910F917F938F93189502E0502F09E14F
:10014400602F93FC07C000E8112710938B000093E5
:100154008A0006C00DEA11E010938B0000938A0018
:10016400E7CF22E0922A28E0A21A22E0122E21E010
:10017400222E20917C00207E236020937C002091FD
:100184007A00206420937A0020917A0026FDFCCF27
:1001940020917900220F220F322E20917C00207EA4
:1001A400206020937C0020917A00206420937A00C0
:1001B40020917A0026FDFCCF20917900220F422E57
:1001C40020917C00207E226020937C0020917A0084
:1001D400206420937A0020917A0026FDFCCF2091A0
:1001E4007900522E20917C00207E216020937C0097
:1001F40020917A00206420937A0020917A0026FDD1
:10020400FCCF20917900622E5A2C6A2CFFCFD5B8EE
:100214000AE00A95F1F7242D25952595620E420CE6
:10022400132D052D060D110D010F1AF4F5B800005C
:10023400FACFD5B8F8CF5E982FEF0AD02FEF08D0B9
:100244005E9A2FEF05D02FEF03D01A95A1F70895EA
:100254003FEF3A95F1F72A95D9F708950100B300D5
:100264000606B300060EB3000606B3000A02B30086
:10027400F10009010100B3000706B300060EB30044
:0C0284000506B3000B02B300F2010901F3
:00000001FF
