:020000020000FC
:040000000C942A0032
:100044000C9465000C948E00000000000C94790060
:1000540000E810E0009361001093610000E40AB925
:1000640000E600937C0003E800937A0000E0C02ED1
:1000740001E0D02E02E0E02E03E0F02EF4B812E00E
:10008400D8D00DEF11E0109387000093860000276D
:1000940000938000502F01E100938100602F01E064
:1000A40000936F0000E311271093890000938800E8
:1000B40000E8112710938B0000938A00F2E0ECE52E
:1000C40041E07894FFCFC5B805E000936F004A95EE
:1000D40069F44591959091FE03C00591059102C084
:1000E4007591859190FE02C0F2E0ECE51895D5B8C3
:1000F40006E006BB07E000936F0050938000609316
:1001040081000F911F9191FE02C0712F802F04E690
:100114000F9300E00F931895D5B801E000936F009A
:1001240092FC0BC091FE04C00027502F01E1602F08
:100134000F910F917F938F93189502E0502F09E14F
:10014400602F93FC07C000E8112710938B000093E5
:100154008A0006C00DEA11E010938B0000938A0018
:10016400E7CF22E0922A20917C00207E2060209319
:100174007C0020917A00206420937A0020917A00F8
:1001840026FDFCCF209179002695422E20917C00FB
:10019400207E216020937C0020917A0020642093AB
:1001A4007A0020917A0026FDFCCF209179002695D3
:1001B400269526952695222EAA946A2C20917C00B9
:1001C400207E226020937C0020917A00206420937A
:1001D4007A0020917A0026FDFCCF209179002695A3
:1001E40026952695122E20917C00207E2360209354
:1001F4007C0020917A00206420937A0020917A0078
:1002040026FDFCCF209179002695022E322E562C05
:10021400FFCFD5B80AE00A95F1F7640C420C302CF4
:10022400562C310C530C1AF4F5B80000FACFD5B89B
:10023400F8CF5E982FEF0AD02FEF08D05E9A2FEFF9
:1002440005D02FEF03D01A95A1F708953FEF3A9503
:10025400F1F72A95D9F708950100B3000606B30013
:10026400060EB3000606B3000A02B300F1000B0148
:100274000100B3000706B300060EB3000506B30081
:080284000B02B300F2010B01B3
:00000001FF
