:020000020000FC
:040000000C942A0032
:100044000C9461000C948A00000000000C9475006C
:1000540000E810E0009361001093610000E6009353
:100064007C0003E800937A0000E0C02E01E0D02E6B
:1000740002E0E02E03E0F02EF4B80DEF11E010934F
:10008400870000938600002700938000502F01E131
:1000940000938100602F01E000936F0000E31127BB
:1000A400109389000093880000E8112710938B00B7
:1000B40000938A00F2E0EEE241E07894FFCFC5B805
:1000C40005E000936F004A9569F44591959091FE7F
:1000D40003C00591059102C07591859190FE02C0FF
:1000E400F2E0EEE21895D5B806E006BB07E000930F
:1000F4006F0050938000609381000F911F9191FED7
:1001040002C0712F802F00E60F9300E00F93189523
:10011400D5B801E000936F0092FC0BC091FE04C0BF
:100124000027502F01E1602F0F910F917F938F9340
:10013400189502E0502F09E1602F93FC07C000E8F6
:10014400112710938B0000938A0006C00DEA11E07A
:1001540010938B0000938A00E7CF22E0922A26E0D6
:10016400A21A22E0122E21E0222E20917C00207E71
:10017400236020937C0020917A00206420937A00ED
:1001840020917A0026FDFCCF20917900220F220FC6
:10019400322E20917C00207E206020937C002091D0
:1001A4007A00206420937A0020917A0026FDFCCF07
:1001B40020917900220F422E20917C00207E216024
:1001C40020937C0020917A00206420937A0020916F
:1001D4007A0026FDFCCF2091790020917C00207EBE
:1001E400226020937C0020917A00206420937A007E
:1001F40020917A0026FDFCCF209179005A2C6A2C9C
:10020400FFCFD5B80AE00A95F1F7242D2595259559
:10021400620E420C132D052D060D110D010F1AF45B
:10022400F5B80000FACFD5B8F8CF0100AF00060644
:10023400AF00060EAF000606AF000A02AF00F100E1
:1002440003010100AF000706AF00060EAF0005066C
:0A025400AF000B02AF00F20103013E
:00000001FF
